:100000000C9446000C9450000C9450000C9450003A
:100010000C9450000C9450000C9450000C94500020
:100020000C9450000C9450000C9450000C94500010
:100030000C9450000C9450000C9450000C94500000
:100040000C9450000C9450000C9450000C945000F0
:100050000C9450000C9450000C9450000C945000E0
:100060000C9450000C9450000C9450000C945000D0
:100070000C9450000C9450000C9450000C945000C0
:100080000C9450000C9450000C94500011241FBE8E
:10009000CFEFD0E1DEBFCDBF0E946B000C94840097
:1000A0000C940000909398008093990088E18093CD
:1000B0009A008CE080939D00089590919B0095FF9D
:1000C000FCCF80939C00089580919B0087FFFCCF1C
:1000D00080919C0008951092980084E1809399008B
:1000E00088E180939A008CE080939D0080919B0032
:1000F00087FFFCCF90919C009F5F80919B0085FFC4
:0C010000FCCF90939C00F2CFF894FFCF4E
:00000001FF
