:100000000C9446000C9450000C9450000C9450003A
:100010000C9450000C9450000C9450000C94500020
:100020000C9450000C9450000C9450000C94500010
:100030000C9450000C9450000C9450000C94500000
:100040000C9450000C9450000C9450000C945000F0
:100050000C9450000C9450000C9450000C945000E0
:100060000C9450000C9450000C9450000C945000D0
:100070000C9450000C9450000C9450000C945000C0
:100080000C9450000C9450000C94500011241FBE8E
:10009000CFEFD0E1DEBFCDBF0E9463000C947400AF
:1000A0000C9400009093900089B988E18AB98EE0A1
:1000B0008093950008955D9BFECF8CB908955F9B5A
:1000C000FECF8CB108951092900088EA89B988E13A
:1000D0008AB98EE0809395005F9BFECF8CB18F5FD5
:0C00E0005D9BFECF8CB9F8CFF894FFCFE9
:00000001FF
